:100000000C94BF010C94E0010C94E0010C94E0010D
:100010000C94E0010C94E0010C94E0010C94E001DC
:100020000C94E0010C94E0010C94E0010C94E001CC
:100030000C94E0010C94E0010C94E0010C94E001BC
:100040000C94E0010C94AC160C94E0010C94E001CB
:100050000C94E0010C94E0010C94E0010C94E0019C
:100060000C94E0010C940F030C9454030C94E001E5
:100070000C94E0010C94E0010C94E0010C94E0017C
:100080000C94E0010C94E0010C94E0010C94E0016C
:100090000C94E0010C94E0010C94E0010C94E0015C
:1000A0000C94E0010C94E0010C94E0010C94E0014C
:1000B0000C94E0010C94E0010C94E0010C94E0013C
:1000C0000C94E0010C94E0010C94E0010C94E0012C
:1000D0000C94E0010C94E0010C94E0010C94E0011C
:1000E0000C94E0010C9440010C947A010C94EA0108
:1000F0000C949E010C948C000C9405140C943D04FB
:100100000C94BA000C949B030C94E2010C944C14D4
:100110000C94FE010C940E0180917002882309F169
:100120000FB6F8940F92E0917602F0917702C681B3
:10013000D781CE0102960E941A1180916F028150E0
:1001400080936F02809170028150809370020F90B3
:100150000FBE8F89988D0E943613CE010E943613F0
:10016000DBCF80919902823010F00E94D1150E945D
:100170003702D2CFCF93DF9300D01F92CDB7DEB737
:100180007C0100E010E08BE7882E912CA12CB12C93
:1001900097E0492E512C612C712CDD24D394898257
:1001A0009A82AB82BC8289819A81AB81BC81895B56
:1001B0009B46AC4FBF4F89839A83AB83BC83298115
:1001C0003A814B815C81ADEFBFEF0E94FE166983DF
:1001D0007A838B839C8369817A818B819C81A30143
:1001E00092010E94D11629833A834B835C838981D3
:1001F0009A81AB81BC818B319747AE4FBF4F19F0CD
:1002000001E010E0CCCF01151105D1F70FB6F8943D
:100210000F92F701D0820F900FBEC1CFCF93DF9323
:100220001F921F92CDB7DEB77C011A82198200E0BF
:1002300013E020E040E050E0BE016F5F7F4FF70128
:10024000808191810E94D50C813091F401110AC006
:100250000FB6F8940F928091DC088F5F8093DC08D2
:100260000F900FBE89819A8101969A83898301C07C
:1002700001E01150F1F683E090E00E945308D8CFDE
:10028000CF93DF931F921F92CDB7DEB76C01F12C95
:1002900000E010E0F601808191810E94AD0F88237B
:1002A00021F140E050E0BE016F5F7F4FF601808199
:1002B00091810E94BD0D813069F789819A8108176B
:1002C000190769F4F1100EC00FB6F8940F928091DF
:1002D000DD088F5F8093DD080F900FBE03C08C0197
:1002E000FF24F3940F5F1F4FD5CF8FEE9FEF0E9437
:1002F0005308D0CFCF93DF931F92CDB7DEB718E16D
:100300004FEF5FEFBE016F5F7F4F80E090E00E9494
:10031000D702882329F08091DF088F5F0E9467024F
:10032000115071F78091DF0860E08F5F0E944202F8
:100330008091DE088F5F8093DE08E1CF40E050E0DF
:1003400068E480E090E00E94E30240E050E06AE070
:1003500080E090E00E94E30240E050E06DE080E049
:1003600090E00E94E30260E08091DF080E94420278
:100370000E94E7068CED95E00E945308DFCF112420
:100380001FBECFEFD1E2DEBFCDBF00E00CBF12E059
:10039000A0E0B2E0EAE3FEE200E00BBF02C007909B
:1003A0000D92AA35B107D9F728E0AAE5B2E001C05D
:1003B0001D92A83EB207E1F70E9497150C941B17F7
:1003C0000C94000085E00E94670284EC99E00E9492
:1003D0005308F8CFCF93DF931F921F92CDB7DEB7AC
:1003E0000E94E7069A83898386E00E94670260ED97
:1003F00077E0CE0101960E941C08F6CFC1E088EBA1
:100400009BE00E945308209100023091010240912C
:10041000020250910302A3E0B0E00E94F016609344
:1004200000027093010280930202909303020E94E3
:10043000E214813011F0C0935A020E9450158130AD
:1004400011F0C0935A020E941715813011F0C09329
:100450005A020E94FD04813011F0C0935A0280912B
:100460005A028111CCCF87E00E946702C8CF0C945A
:10047000F2118FEF8093040280930A018AE5809342
:100480000B0108951F93CF93DF938830E0F4162F6C
:10049000C1E0D0E001C0CC0F8A95EAF70E94E106E6
:1004A00080910402113019F4C095C82301C0C82BF3
:1004B000C09304028091040280930B01DF91CF91DD
:1004C0001F910C94AD07DF91CF911F910895CF93A9
:1004D000DF938830F0F4C1E0D0E001C0CC0F8A9502
:1004E000EAF70E94E106809104028C2329F08091B2
:1004F0000402C095C82303C080910402C82BC09396
:1005000004028091040280930B01DF91CF910C943F
:10051000AD07DF91CF910895CF92DF92EF92FF92D6
:10052000CF936B017C01C42F0FB6F8940F9240E07B
:1005300061E08C2F0E94AD0C90935E0280935D026F
:1005400040E061E08C2F0E94AD0C90935C028093A0
:100550005B02A701960184E0220F331F441F551F41
:100560008A95D1F760E074E284EF90E00E94AF16C4
:10057000BA01A901415051096109710988E08093CC
:10058000C400BB27A72F962F852F8093C50088E92D
:100590008093C10086E88093C2000F900FBE80E078
:1005A00090E0CF91FF90EF90DF90CF9008958091F1
:1005B0005D0290915E020E94BD0D91E0811101C02B
:1005C00090E0892F0895CF93DF931F92CDB7DEB7C8
:1005D000698320E0BE016F5F7F4F80915B02909145
:1005E0005C020E94D50C813039F48091C100806298
:1005F0008093C10081E001C080E00F90DF91CF9136
:1006000008950FB6F8940F92E1ECF0E080818F7DB1
:10061000808380818F7780830F900FBE08951F9213
:100620000F920FB60F9211240BB60F922F933F9398
:100630004F935F936F937F938F939F93AF93BF93EA
:10064000EF93FF93CF93DF931F921F92CDB7DEB747
:1006500019828091C6008A8320E0AE014F5F5F4F10
:10066000BE016E5F7F4F80915D0290915E020E949D
:100670006B0D898181110E94D1150F900F90DF9130
:10068000CF91FF91EF91BF91AF919F918F917F910A
:100690006F915F914F913F912F910F900BBE0F90F3
:1006A0000FBE0F901F9018951F920F920FB60F92CA
:1006B00011240BB60F922F933F934F935F936F9339
:1006C0007F938F939F93AF93BF93EF93FF93CF93BA
:1006D000DF931F921F92CDB7DEB7AE014F5F5F4F22
:1006E000BE016E5F7F4F80915B0290915C020E9421
:1006F000670F813021F48A818093C60005C0809104
:10070000C1008F7D8093C1000F900F90DF91CF913A
:10071000FF91EF91BF91AF919F918F917F916F91D9
:100720005F914F913F912F910F900BBE0F900FBE95
:100730000F901F901895F5E00F2EF6E01F2EF7E0B2
:100740002F2EF8E03F2EF9E04F2EFAE05F2EFBE06F
:100750006F2EFCE07F2EFDE08F2EFEE09F2EFFE04F
:10076000AF2EF0E1BF2EF1E1CF2EF2E1DF2EF3E16B
:10077000EF2EF4E1FF2E05E116E127E138E149E132
:100780005AE16BE17CE18DE19EE1AFE1B0E2E1E2B3
:10079000F5E0F01100925F02F6E0F11100925F02C5
:1007A000F7E0F21100925F02F8E0F31100925F02AD
:1007B000F9E0F41100925F02FAE0F51100925F0295
:1007C000FBE0F61100925F02FCE0F71100925F027D
:1007D000FDE0F81100925F02FEE0F91100925F0265
:1007E000FFE0FA1100925F02F0E1FB1100925F025C
:1007F000F1E1FC1100925F02F2E1FD1100925F0253
:10080000F3E1FE1100925F02F4E1FF1100925F023A
:10081000F5E1F01300925F02F6E1F11300925F023E
:10082000F7E1F21300925F02F8E1F31300925F0226
:10083000F9E1F41300925F02FAE1F51300925F020E
:10084000FBE1F61300925F02FCE1F71300925F02F6
:10085000FDE1F81300925F02FEE1F91300925F02DE
:10086000FFE1FA1300925F02F0E2FB1300925F02D5
:10087000F1E2FE1300925F025ECFF1E00F2EF2E094
:100880001F2EF3E02F2EF4E03F2EF5E04F2EF6E082
:100890005F2EF7E06F2EF8E07F2EF9E08F2EFAE062
:1008A0009F2EFBE0AF2EFCE0BF2EFDE0CF2EFEE042
:1008B000DF2EFFE0EF2EF0E1FF2E01E112E123E158
:1008C00034E145E156E167E178E189E19AE1ABE1A4
:1008D000BCE1EDE1F1E0F01100925F02F2E0F11114
:1008E00000925F02F3E0F21100925F02F4E0F31174
:1008F00000925F02F5E0F41100925F02F6E0F5115C
:1009000000925F02F7E0F61100925F02F8E0F71143
:1009100000925F02F9E0F81100925F02FAE0F9112B
:1009200000925F02FBE0FA1100925F02FCE0FB1113
:1009300000925F02FDE0FC1100925F02FEE0FD11FB
:1009400000925F02FFE0FE1100925F02F0E1FF11F2
:1009500000925F02F1E1F01300925F02F2E1F11305
:1009600000925F02F3E1F21300925F02F4E1F313ED
:1009700000925F02F5E1F41300925F02F6E1F513D5
:1009800000925F02F7E1F61300925F02F8E1F713BD
:1009900000925F02F9E1F81300925F02FAE1F913A5
:1009A00000925F02FBE1FA1300925F02FCE1FB138D
:1009B00000925F02FDE1FE1300925F025ECFEF92B4
:1009C000FF920F93E12CF12C00E020E030E045E5B0
:1009D00050E066E272E08BE993E00E94610520E05E
:1009E00030E045E550E06BE272E08DE394E00E9478
:1009F00061050F91FF90EF90089581E090915F0263
:100A0000911180E00895E0918502F0918602808145
:100A1000811103C08FEF9FEF0CC0E0918502F09130
:100A200086020580F681E02D0680F781E02D828127
:100A30009381909366028093650208950F931F93AC
:100A4000CF93DF93EC0100916D0210916E028091C3
:100A500060029091610202960E941A11C00FD11F8C
:100A6000E0916002F0916102D383C28360916002E1
:100A700070916102C017D10760F480918302909158
:100A800084026E5F7F4FDF91CF911F910F910C9485
:100A9000E21080918502909186026E5F7F4F0E94E6
:100AA000E2108091650290916602C817D90720F480
:100AB000D0936602C0936502DF91CF911F910F9191
:100AC00008953F924F925F926F927F928F929F9282
:100AD000AF92BF92CF92DF92EF92FF920F931F934C
:100AE000CF93DF934C01162F372E6A015901CA01AB
:100AF0000E9404132C01892B09F4CCC086E290E0FB
:100B00000E940413EC01892B79F0588E4F8AC6019C
:100B100001973201680E791EBE01675E7F4FE12F9B
:100B2000F32DCF01089607C0C2010E943613B2C050
:100B3000E817F90749F09F014191DB014D93BD0191
:100B4000D9012C912111F4CF18A2043008F003E050
:100B50000E8B6E01B2E0CB0ED11CC6010E94BD10FF
:100B6000CE010C960E94BD10D987C88784E090E022
:100B7000801B91099D878C87DB8BCA8B19A21AA2D7
:100B80001BA21CA21DA2A501B401C3010E94451312
:100B900099838883E114F10419F0F701D183C083AC
:100BA0000FB6F8940F9280916F028F5F80936F025F
:100BB0008091600290916102892BA9F5D093610226
:100BC000C093600280916F028130E9F589E992E07B
:100BD0000E94AF1082EA92E00E94AF108BEA92E08E
:100BE0000E94AF1084EB92E00E94AF1080E992E087
:100BF0000E94AF1087E892E00E94AF108AE792E06F
:100C00000E94AF1081E792E00E94AF1080E992E06D
:100C1000909386028093850287E892E09093840205
:100C20008093830210C080916B0281110CC0E0910F
:100C30006002F091610296898E89891720F0D09325
:100C40006102C0936002809167028F5F80936702A8
:100C50008E8990916C02981710F480936C02F9E0E1
:100C60008F9FC0011124B60187569D4F0E94C1106D
:100C70000F900FBE80916B02882351F0E0916002CB
:100C8000F091610296898E89981710F40E94D1150F
:100C900081E001C08FEFDF91CF911F910F91FF9005
:100CA000EF90DF90CF90BF90AF909F908F907F900C
:100CB0006F905F904F903F9008950F931F93CF9345
:100CC000DF93EC010FB6F8940F92892B21F4C091B9
:100CD0006002D09161028E010E5F1F4FC8010E9419
:100CE0001A118C899D89892B21F0CE010C960E94C6
:100CF0001A11809167028F5F809367028091600272
:100D000090916102C817D90759F4B80181E792E0C0
:100D10000E94C110809170028F5F809370020EC09C
:100D200080916F02815080936F028F89988D0E940D
:100D30003613CE010E9436130E9403050F900FBE9A
:100D400080916B02882349F080916002909161024A
:100D5000C817D90711F40E94D115DF91CF911F91C7
:100D60000F910895EF92FF920F9383E6E82E82E0B1
:100D7000F82E00E020E030E045E550E060E372E06E
:100D80008CE890E00E946105813091F4F8942FEF97
:100D90003FEF309366022093650280936B021092BE
:100DA0006E0210926D020F91FF90EF900C94B713AA
:100DB0000F91FF90EF900895F89410926B020C94AD
:100DC000FF13809162028F5F8093620208950FB6D5
:100DD000F8940F9280916D0290916E020F900FBE69
:100DE000089580916D0290916E02089580916F0236
:100DF0000895009721F480916002909161024996D4
:100E00000895CF92DF92EF92FF920F931F93CF93AB
:100E1000DF938091620281118CC000916D0210916C
:100E20006E020F5F1F4F10936E0200936D0201154B
:100E30001105B9F480918502909186022091830278
:100E4000309184023093860220938502909384022D
:100E500080938302809168028F5F809368020E9472
:100E600003058091650290916602C0E0081719079A
:100E700008F44FC0D9E0E0918502F09186028081AC
:100E8000811103C08FEF9FEF11C0E0918502F091B7
:100E900086020580F681E02DE680F780D701129664
:100EA0008D919C9113970817190728F49093660267
:100EB000809365022EC06701B2E0CB0ED11CC60143
:100EC0000E941A11F70184899589892B21F0C701A5
:100ED0000C960E941A11D70156968C9190916C0233
:100EE000981710F480936C02D89FC0011124B601AA
:100EF00087569D4F0E94C110E0916002F0916102FF
:100F0000D70156969C918689981708F4B4CFC1E012
:100F1000B2CFE0916002F0916102E689B9E0EB9F07
:100F2000F0011124E756FD4F8081823040F0C1E08E
:100F300006C080916A028F5F80936A02C0E0809150
:100F400069028111C1E08C2FDF91CF911F910F9128
:100F5000FF90EF90DF90CF900895EF92FF920F9364
:100F60001F93CF93DF930FB6F8940F928091620294
:100F700081508093620280916202882311F080E0A8
:100F800052C080916F028823D1F3C0E0D0E089E0A5
:100F9000F82EEE24E39480917A02882351F1E091B7
:100FA0007F02F0918002C681D781CE010C960E940B
:100FB0001A118E010E5F1F4FC8010E941A118E89EF
:100FC00090916C02981710F480936C02F89EC00107
:100FD0001124B80187569D4F0E94C110E091600214
:100FE000F09161029E8986899817A8F2E0926902C1
:100FF000D2CFCD2B11F00E940305C0916A02CC2301
:1010000051F0D1E00E9401078111D0936902C150D3
:10101000C9F710926A0280916902882309F4AFCF60
:101020000E94D11581E00F900FBEDF91CF911F91EB
:101030000F91FF90EF9008950F931F93CF93DF933D
:101040008C01EB010E94E10640916D0250916E020D
:10105000F80120813181C9018C0F9D1F4217530770
:1010600020F48217930740F403C08217930730F0EF
:1010700021E04817590718F020E001C021E0F801ED
:1010800091838083222321F0841B950B0E941E05EF
:101090000E94AD07811102C00E94D115DF91CF914E
:1010A0001F910F910895CF93DF93EC01892B19F4D1
:1010B0000E94D11509C00E94E106CE010E941E05C2
:1010C0000E94AD078823A1F3DF91CF91089580910D
:1010D0006202882321F081E08093690208951092D2
:1010E000690280916C0269E0482F50E0649F900192
:1010F000659F300D1124F901E756FD4F9081911144
:1011000002C08150F1CFA181B28112960D90BC91A5
:10111000A02DB283A18324563D4FA217B30731F40B
:1011200012962D913C9113973283218399E0949FDD
:10113000F001959FF00D1124E756FD4F0180F281DB
:10114000E02D2681378130936102209360028093E5
:101150006C020895CF93DF93EB0160916002709170
:101160006102645F7F4F0E94E210CE01DF91CF9158
:101170000C941E05CF93DF93EA01E0916002F09199
:101180006102706875876487609160027091610286
:10119000645F7F4F0E94C110CE01DF91CF910C940C
:1011A0001E050F931F93CF93DF93DC011596ED91EE
:1011B000FC911697C681D7818E01045F1F4FC8012D
:1011C0000E941A1180916202811114C00A50110903
:1011D000C8010E941A118E8990916C02981710F420
:1011E00080936C02B9E08B9FC0011124B80187562F
:1011F0009D4F03C0B8018AE792E00E94C110E091C0
:101200006002F09161029E898689891720F481E04D
:101210008093690201C080E0DF91CF911F910F910F
:1012200008950F931F93CF93DF937068FC01718330
:101230006083C681D7810E941A118E010E5F1F4FF5
:10124000C8010E941A118E8990916C02981710F4AF
:1012500080936C02F9E08F9FC0011124B80187567A
:101260009D4F0E94C110E0916002F09161029E8941
:101270008689891718F481E080936902DF91CF9104
:101280001F910F9108950FB6F8940F922091680264
:10129000FC01208320916D0230916E023283218304
:1012A0000F900FBE089520916802FC0120832091C9
:1012B0006D0230916E023283218308950FB6F89447
:1012C0000F9220916D0230916E02DC0111964D91CA
:1012D0005C911297E0916802FC91FE1719F02417B7
:1012E000350790F4241B350BFB01408151812417F5
:1012F000350740F4421B530B518340830E9453092E
:1013000080E003C01182108281E00F900FBE08952B
:1013100081E0809369020895E0916002F09161029A
:1013200084859585E0916002F0916102A091600250
:10133000B091610256964C9124E030E0241B3109B3
:101340003587248708950F931F93182FCB010FB66D
:10135000F8940F92E0916002F091610241A152A1D4
:1013600063A174A1452B462B472B61F4E0916002E9
:10137000F091610221E025A3009721F00E941E0553
:101380000E94D1150F900FBE0FB6F8940F92E09106
:101390006002F091610261A172A183A194A1611523
:1013A000710581059105A9F0E0916002F09161025B
:1013B000112329F011A212A213A214A20AC08B01B8
:1013C0009C01015011092109310901A312A323A392
:1013D00034A3E0916002F091610215A20F900FBE5C
:1013E0001F910F9108954F925F926F927F928F920B
:1013F0009F92AF92BF92EF92FF920F931F9349017A
:101400005A010FB6F8940F92E0916002F0916102D8
:1014100025A1223031F1E0916002F091610221A119
:1014200032A143A154A12B013C01409450946094FB
:101430007094D301C20182239323A423B52381A3F3
:1014400092A3A3A3B4A3E0916002F091610281E0B2
:1014500085A3E114F10429F0C7010E941E050E9432
:10146000D1150F900FBE0FB6F8940F92011511050C
:1014700069F0E0916002F091610281A192A1A3A1C3
:10148000B4A1F80180839183A283B383E0916002C9
:10149000F091610285A18230C1F4E0916002F09187
:1014A000610241A152A163A174A1D501C40180953B
:1014B0009095A095B09584239523A623B72381A367
:1014C00092A3A3A3B4A381E001C080E0E0916002F5
:1014D000F091610215A20F900FBE1F910F91FF9026
:1014E000EF90BF90AF909F908F907F906F905F90A4
:1014F0004F9008950F931F93CF93DF93FC010FB686
:10150000F8940F920115110549F081A192A1A3A1B0
:10151000B4A1E80188839983AA83BB8335A182E0C3
:1015200085A3223089F058F4213001F581A192A1E0
:10153000A3A1B4A1482B592B6A2B7B2B13C02330BA
:1015400089F0243069F012C081A192A1A3A1B4A1B5
:101550000196A11DB11D81A392A3A3A3B4A306C0AC
:10156000323049F141A352A363A374A3313009F58A
:10157000EF018F010E5F1F4FC8010E941A118E8963
:1015800090916C02981710F480936C0229E0829F6E
:10159000C0011124B80187569D4F0E94C110E091EF
:1015A0006002F09161029E898689891710F40E9479
:1015B000D11581E001C080E00F900FBEDF91CF9187
:1015C0001F910F910895EF92FF920F931F93CF9366
:1015D000DF93FC010115110549F081A192A1A3A19E
:1015E000B4A1E80188839983AA83BB8335A182E0F3
:1015F00085A3223089F058F4213001F581A192A110
:10160000A3A1B4A1482B592B6A2B7B2B13C02330E9
:1016100089F0243069F012C081A192A1A3A1B4A1E4
:101620000196A11DB11D81A392A3A3A3B4A306C0DB
:101630003230D9F141A352A363A374A3313011F026
:1016400081E034C0EF0180916202811115C08F01E9
:101650000E5F1F4FC8010E941A118E8990916C0273
:10166000981710F480936C02E9E08E9FC00111245A
:10167000B80187569D4F05C0BF01645F7F4F8AE761
:1016800092E00E94C110E0916002F09161029E8997
:1016900086898917A8F6E114F10419F081E0E701C1
:1016A000888381E08093690201C080E0DF91CF915F
:1016B0001F910F91FF90EF900895EF92FF920F937B
:1016C0001F93CF93DF93FC0125A182E085A381A125
:1016D00092A1A3A1B4A10196A11DB11D81A392A3C2
:1016E000A3A3B4A32130A1F58B01EF018091620285
:1016F000811116C07F0122E0E20EF11CC7010E9499
:101700001A118E8990916C02981710F480936C02D4
:10171000E9E08E9FC0011124B70187569D4F05C097
:10172000BF01645F7F4F8AE792E00E94C110E091A1
:101730006002F09161029E898689891748F401153B
:10174000110519F081E0F801808381E0809369023E
:10175000DF91CF911F910F91FF90EF900895009727
:1017600021F480916002909161020FB6F8940F927B
:10177000FC0125A1223019F415A281E001C080E00E
:101780000F900FBE08950FB6F8940F92FC01928D42
:101790000F900FBE81E0911180E008950F931F9389
:1017A000CF93DF93EC01042F1A8D4C8D4423B1F1BC
:1017B00050E0011115C08A819B810E9412172C8D67
:1017C0008A819B81820F911D9B838A832C813D811D
:1017D0008217930718F1888199819B838A831EC0A1
:1017E0008E819F810E9412178C8D90E0919581953A
:1017F00091092E813F81280F391F3F832E83488115
:1018000059812417350730F42C813D81820F931FB5
:101810009F838E83023011F4111111501F5F1A8FB4
:1018200080E0DF91CF911F910F910895FC01CB01D2
:10183000448D4423A1F050E026813781240F351FC9
:1018400037832683648175812617370720F020812E
:10185000318137832683668177810C94121708952E
:10186000EF92FF921F93CF93DF93EC010FB6F894A2
:101870000F921E8D7C0181E1E80EF11C11165CF4C3
:101880008989882341F0C7010E94D10881110E94F3
:1018900088091150F3CF8FEF8E8F0F900FBE0FB6C8
:1018A000F8940F921D8D7E0188E0E80EF11C111650
:1018B0005CF48885882341F0C7010E94D10881111A
:1018C0000E9488091150F3CF8FEF8D8F0F900FBEBC
:1018D000DF91CF911F91FF90EF900895CF93DF9309
:1018E000EC010FB6F8940F92488159818B8D7C8D55
:1018F0009A01879F200D311D11243D832C831A8E60
:101900005B834A8390E00197789F9001799F300D27
:101910001124CA01820F931F9F838E838FEF8D8FB7
:101920008E8F61110CC08885882389F0CE010896BE
:101930000E94D108882359F00E94D11508C0CE0119
:1019400008960E94AF10CE0141960E94AF100F90F2
:101950000FBE81E0DF91CF9108950F931F93CF9336
:10196000DF93082F162F662321F0869FC0011124D4
:1019700002C080E090E04F960E940413EC010097B3
:1019800071F0111103C09983888303C04F96998326
:1019900088830B8F1C8F61E0CE010E946E0CCE01FC
:1019A000DF91CF911F910F910895AF92BF92CF9287
:1019B000DF92FF920F931F93CF93DF9300D01F927C
:1019C0001F92CDB7DEB78C016B015D834C83F22E85
:1019D00080E0580198E0A90EB11C0FB6F8940F9260
:1019E000F801228D938D291718F0F2E0FF1214C030
:1019F0004F2DB601C8010E94CE0BF80191899923A1
:101A000021F0C80141960E94D10881110E94D11590
:101A10000F900FBE81E050C02C813D81232B19F423
:101A20000F900FBE48C0811104C0CE0101960E94E4
:101A300053090F900FBE0E94E1060FB6F8940F9263
:101A4000F801858D8F3F09F4158EF801868D8F3F43
:101A500009F4168E0F900FBEBE016C5F7F4FCE0152
:101A600001960E945E09811121C00FB6F8940F9271
:101A7000F801928D838D0F900FBE981311C06C8169
:101A80007D81C5010E94AA08C8010E94300C0E94F5
:101A9000AD07882311F081E0A0CF0E94D115FBCFC4
:101AA000C8010E94300C0E94AD07F5CFC8010E940A
:101AB000300C0E94AD0780E00F900F900F900F90B8
:101AC0000F90DF91CF911F910F91FF90DF90CF90FA
:101AD000BF90AF900895EF92FF921F93CF93DF9343
:101AE000EC019A8D8B8D981710F02230E1F47A0179
:101AF0001E8D422FCE010E94CE0B1F3F81F489899B
:101B0000882379F0CE0141960E94D108882349F0BC
:101B1000E114F10431F081E0F701808305C01F5F1B
:101B20001E8F81E001C080E0DF91CF911F91FF9077
:101B3000EF900895CF93DF93FC01928D838D9817DA
:101B4000C0F4868D9F5F928F8F3F79F481898823BF
:101B500071F0EB01CF0141960E94D108882339F042
:101B6000209729F081E0888305C08F5F868F81E010
:101B700001C080E0DF91CF910895AF92BF92CF92E4
:101B8000DF92FF920F931F93CF93DF9300D01F92AA
:101B90001F92CDB7DEB78C016B015D834C8380E073
:101BA000580191E1A90EB11C0FB6F8940F92F801FB
:101BB000F28CFF20A9F0B601C8010E94160CFA941D
:101BC000F801F28E8085882339F0C80108960E94BA
:101BD000D10881110E94D1150F900FBE81E050C035
:101BE0002C813D81232B19F40F900FBE48C0811129
:101BF00004C0CE0101960E9453090F900FBE0E94AF
:101C0000E1060FB6F8940F92F801858D8F3F09F425
:101C1000158EF801868D8F3F09F4168E0F900FBE3A
:101C2000BE016C5F7F4FCE0101960E945E0981115B
:101C30001CC0C8010E94C30B882389F06C817D8180
:101C4000C5010E94AA08C8010E94300C0E94AD077D
:101C5000882311F081E0A8CF0E94D115FBCFC801E5
:101C60000E94300C0E94AD07F5CFC8010E94300CD5
:101C70000E94AD07C8010E94C30B882359F380E07E
:101C80000F900F900F900F900F90DF91CF911F91B9
:101C90000F91FF90DF90CF90BF90AF900895EF929B
:101CA000FF920F931F93CF93DF9300D01F921F9249
:101CB000CDB7DEB78C017D836C8390E0780181E144
:101CC000E80EF11C0FB6F8940F92F801828D88236C
:101CD00081F08150828F8085882339F0C801089671
:101CE0000E94D10881110E94D1150F900FBE81E092
:101CF00050C02C813D81232B19F40F900FBE48C09A
:101D0000911104C0CE0101960E9453090F900FBE9D
:101D10000E94E1060FB6F8940F92F801858D8F3F6F
:101D200009F4158EF801868D8F3F09F4168E0F90F9
:101D30000FBEBE016C5F7F4FCE0101960E945E090F
:101D400081111CC0C8010E94C30B882389F06C81DB
:101D50007D81C7010E94AA08C8010E94300C0E9420
:101D6000AD07882311F091E0ADCF0E94D115FBCFD4
:101D7000C8010E94300C0E94AD07F5CFC8010E9437
:101D8000300C0E94AD07C8010E94C30B882359F391
:101D900080E00F900F900F900F900F90DF91CF91F8
:101DA0001F910F91FF90EF900895CF92DF92EF92E5
:101DB000FF920F931F93CF93DF9300D01F921F9238
:101DC000CDB7DEB78C017B015D834C8380E0680179
:101DD00091E1C90ED11C0FB6F8940F92F801928DC3
:101DE0009923B9F0C680D780B701C8010E94160CAC
:101DF000F801D782C6828189882339F0C8014196CB
:101E00000E94D10881110E94D1150F900FBE81E070
:101E100050C02C813D81232B19F40F900FBE48C078
:101E2000811104C0CE0101960E9453090F900FBE8C
:101E30000E94E1060FB6F8940F92F801858D8F3F4E
:101E400009F4158EF801868D8F3F09F4168E0F90D8
:101E50000FBEBE016C5F7F4FCE0101960E945E09EE
:101E600081111CC0C8010E94C30B882389F06C81BA
:101E70007D81C6010E94AA08C8010E94300C0E9400
:101E8000AD07882311F081E0A6CF0E94D115FBCFCA
:101E9000C8010E94300C0E94AD07F5CFC8010E9416
:101EA000300C0E94AD07C8010E94C30B882359F370
:101EB00080E00F900F900F900F900F90DF91CF91D7
:101EC0001F910F91FF90EF90DF90CF900895EF92C8
:101ED000FF920F931F93CF93DF93FC01028D00239A
:101EE000E9F07A01EC01158D0E94160C01500A8F61
:101EF0001F3F81F48885882379F0CE0108960E94DF
:101F0000D108882349F0E114F10431F081E0F701B0
:101F1000808305C01F5F1D8F81E001C080E0DF91DD
:101F2000CF911F910F91FF90EF9008950F931F9302
:101F3000CF93DF93FC01228D222349F0EC0106812F
:101F400017810E94160C1F830E8381E001C080E080
:101F5000DF91CF911F910F9108950FB6F8940F92D2
:101F6000FC01828D0F900FBE08950FB6F8940F926A
:101F7000FC01228D838D821B0F900FBE0895FC0102
:101F8000828D08950C943613FC01928D81E091119D
:101F900080E00895FC01928D81E0238D291380E07B
:101FA0000895CF93DF93EC01CA01F8940FB6F8942B
:101FB0000F923A8D2B8D0F900FBE32130DC00097EC
:101FC00041F0BE01685F7F4F0E94B01178948CEFA2
:101FD0001CC0789480E019C07894F8949A8D8B8D09
:101FE000981788F440E0CE010E94CE0B89898111B8
:101FF00002C081E009C0CE0141960E94DF12882311
:10200000C1F38BEF01C080E07894DF91CF91089508
:10201000CF93DF93EC01FB01F8948A8D81110FC0FF
:102020004115510549F0BE016F5E7F4FCA010E9404
:10203000B01178948CEF30C0789480E02DC0789403
:10204000F8948A8D882331F14C8D50E02E813F81A8
:10205000240F351F3F832E838C819D8128173907DC
:1020600020F0888199819F838E839A8D91509A8FD9
:102070006E817F81CF010E9412178885811102C075
:1020800081E009C0CE0108960E94DF128823C1F3C7
:102090008BEF01C080E07894DF91CF9108950F938A
:1020A0001F93CF938C01C42FFC01928D838D9817C1
:1020B00010F04C2F12C040E0C8010E94CE0BC1119D
:1020C000F8CFF8018189882339F0C80141960E9430
:1020D000DF1241E0811101C040E0842FCF911F91B8
:1020E0000F9108950F931F93CF93DF93FC01828D7F
:1020F000882379F1248D30E0A681B781A20FB31F28
:10210000B783A68384819581A817B90720F08081C1
:102110009181978386838A01CB01EF01428D4150E3
:10212000428F66817781A9010E941217F801808190
:10213000882311F081E00EC088858823D9F3CE0171
:1021400008960E94DF128823A9F381E0F8018083BA
:1021500001C080E0DF91CF911F910F910895FC01A4
:102160000396928381832FEF3FEF348323839683FB
:1021700085839087878310820895FC0111861086DD
:102180000895CF93DF939C01FB01DC011196CD9163
:10219000DC911297D383C2838C819D819583848344
:1021A0008C819D81DC0113967C936E9312977D83C5
:1021B0006C8331872087F90180818F5F8083DF9175
:1021C000CF9108950F931F93CF93DF938C01FB0161
:1021D000808191818F3F2FEF920721F4E801AF8139
:1021E000B8850EC0D801139612962D913C91139785
:1021F000E901488159818417950710F0D901F4CF7E
:1022000012968D919C91139793838283EC01FD83A9
:10221000EC83B583A4831396FC93EE9312971187F6
:102220000087F80180818F5F8083DF91CF911F91BC
:102230000F910895CF93DF93FC01A085B185828132
:10224000938124813581EC013D832C83C481D58128
:102250009B838A8311968D919C911297E817F907B9
:1022600021F41296DC93CE931197118610868C91EF
:1022700081508C938C91DF91CF910895CF92DF9212
:10228000EF92FF921F93CF93DF936C01162FF42EE2
:102290008AE190E00E940413EC01892B09F457C0F5
:1022A0008091BD029091BE02892B21F5D093BE0290
:1022B000C093BD0285EE92E00E94AF108EEE92E0D8
:1022C0000E94AF108CED92E00E94AF1083ED92E07F
:1022D0000E94AF1086EC92E00E94AF108CED92E06D
:1022E0009093D2028093D10283ED92E09093D0023A
:1022F0008093CF02111111E0198E188E1E8BFF8A68
:10230000FE01C192D1927F01CF010E94BD10CE018A
:102310000C960E94BD10D987C887DB8BCA8B82E0E0
:1023200090E0811B91099D878C878E899091C502D1
:10233000981710F48093C502F9E08F9FC001112413
:10234000B7018B519D4F0E94C11081E001C08FEFFA
:10235000DF91CF911F91FF90EF90DF90CF90089584
:102360000F931F93CF93DF938B01C091C302D09142
:10237000C402C80FD91F8091BD029091BE0202967F
:102380000E941A11E091BD02F091BE02D383C28374
:102390008091C3029091C402BF016E5F7F4FC81746
:1023A000D90728F48091CF029091D00204C0809187
:1023B000D1029091D2020E94E2100115110569F03C
:1023C0006091BD027091BE02645F7F4FC801DF91D2
:1023D000CF911F910F910C94E210DF91CF911F913B
:1023E0000F910895FF920F931F93CF93DF9399E07E
:1023F000F92E8091C602882311F1F894E091CB0266
:10240000F091CC02C681D781CE010C960E941A11A0
:1024100078948E010E5F1F4FC8010E941A118E8999
:102420009091C502981710F48093C502F89EC001E0
:102430001124B8018B519D4F0E94C110DACF0E9428
:10244000E7062091C1023091C202821B930B909348
:10245000C0028093BF0289E0F82E2091BF02309124
:10246000C0028091C3029091C4022115310509F484
:1024700054C001969093C4028093C3022150310945
:102480003093C0022093BF02892B09F03EC0809197
:10249000D1029091D2022091CF023091D00230939C
:1024A000D2022093D1029093D0028093CF022DC00C
:1024B0000580F681E02DC681D7812A813B818091FC
:1024C000C3029091C4028217930738F2F8948E01E8
:1024D0000E5F1F4FC8010E941A118C899D89892B9C
:1024E00021F0CE010C960E941A1178948E89909159
:1024F000C502981710F48093C502F89EC0011124FC
:10250000B8018B519D4F0E94C110E091D102F09112
:10251000D20280818111CCCFA0CF9093C202809350
:10252000C1028091C50269E0482F50E0649F90018C
:10253000659F300D1124F901EB51FD4F90819111F0
:102540000CC0811108C01092C502DF91CF911F917C
:102550000F91FF9008958150E7CF8093C502A1812C
:10256000B28112960D90BC91A02DB283A183285107
:102570003D4FA217B30731F412968D919C9113979A
:102580009283818389E0849FF001859FF00D11245F
:10259000EB51FD4F0180F281E02D86819781909370
:1025A000BE028093BD02DC01ED91FC91119757961C
:1025B0006C91DF91CF911F910F91FF9019940F9320
:1025C0001F93CF93DF93DC011596ED91FC91169745
:1025D000C681D7818E01045F1F4FC8010E941A1166
:1025E000B80186EC92E00E94C110E091BD02F0912A
:1025F000BE0281E02E899689291708F480E0DF91D8
:10260000CF911F910F910895CF93DF93EC010E941A
:10261000E1068091F7029091F802892B31F48CEF5A
:1026200092E09093F8028093F7022091F9023091A2
:10263000FA02C9018C0F9D1F8B3D45E0940770F491
:102640002817390758F4C091F702D091F802C20F49
:10265000D31F9093FA028093F90202C0C0E0D0E049
:102660000E94AD07CE01DF91CF9108950895109299
:10267000FA021092F90208952091F9023091FA02BB
:102680008BED95E0821B930B089531E1FC013083C3
:10269000319722E220833197A3E3A08331976083AF
:1026A000319770833197108231971082319760E8AB
:1026B0006083319710823197108231971082319761
:1026C00062E06083319763E06083319764E0608308
:1026D000319765E06083319766E06083319767E00A
:1026E0006083319768E06083319769E06083319758
:1026F00060E1608331973083319732E130833197E5
:1027000033E13083319734E13083319735E13083E1
:10271000319736E13083319737E13083319738E1B3
:102720003083319739E13083319730E2308331970C
:1027300031E2308331972083319723E22083319730
:10274000408331975083319726E22083319727E2E7
:102750002083319728E22083319729E22083319723
:1027600020E32083319721E320838997089588EE21
:1027700093E09093E1088093E0089093E3088093BE
:10278000E2081092890089EF809388008BE08093A3
:102790008100EFE6F0E0808182608083A09160029A
:1027A000B0916102CD91CDBFDD91DEBFFF91EF9180
:1027B000DF91CF91BF91AF919F918F917F916F9159
:1027C0005F914F913F912F911F910F91FF90EF904B
:1027D000DF90CF90BF90AF909F908F907F906F9041
:1027E0005F904F903F902F901F900F900CBE0F90D6
:1027F0000BBE0F900FBE0F90089581E00895EFE695
:10280000F0E08081887F808308950F931F93CF939A
:10281000DF931F92CDB7DEB78C01FC01808D918DC7
:102820008E36F1E09F07B1F08F3621E0920751F12B
:10283000892B61F54FEF5FEFBE016F5F7F4F809196
:10284000D7089091D8080E9408108C3F71F48EE64A
:1028500091E00FC040E050E0BE016F5F7F4F80917C
:10286000D7089091D8080E9408108B3F31F48FE66A
:1028700091E0F801918F808F09C0813019F010929A
:102880000502D8CF89810E946702D4CF0F90DF91D3
:10289000CF911F910F9108950F931F93CF93DF93C3
:1028A0001F92CDB7DEB78C016983FC01808D918DBD
:1028B0008E32F1E09F07D9F018F4892B41F03EC029
:1028C0008F32E1E09E0739F182349140B9F540E062
:1028D00050E0BE016F5F7F4F8091D7089091D8087C
:1028E0000E94D10F8C3F71F48EE291E024C040E051
:1028F00050E0BE016F5F7F4F8091D7089091D8085C
:102900000E94D10F8B3F19F48FE291E014C0813007
:1029100011F010920502E981F0E0EE0FFF1FEA5F6F
:10292000FD4F80819181009721F060E070E00E946E
:10293000B01182E491E0F801918F808F0F90DF91C8
:10294000CF911F910F910895CF93DF93D82F8930A6
:1029500008F0D8E040E061E081E00E94AD0C909387
:10296000D8088093D708892B99F0C0E0CD1741F0A3
:102970004C2F60E08CE494E10E943E11CF5FF6CFD3
:1029800040E061E085E094E1DF91CF910C943E114D
:10299000DF91CF910895809105020895EF92FF9203
:1029A0000F93E12CF12C082F29ED38E045E550E09C
:1029B00065E372E08AEB90E00E9461050F91FF9061
:1029C000EF90089581E09091D908911101C080E0C5
:1029D0001092D9080895EF92FF920F93CF93C82FCA
:1029E00040E062E08AE00E94AD0C9093DB088093A7
:1029F000DA08892BB9F0E12CF12C0C2F2AED38E004
:102A000045E550E06DE372E080E491E00E946105ED
:102A10002AED38E045E550E065E472E08EE091E0B3
:102A20000E946105CF910F91FF90EF9008958091E2
:102A3000DD08882329F09091DC0881E0911101C024
:102A400080E01092DD081092DC080895EF92FF926A
:102A50000F93CF93C82FCB01BA012093DF0848E131
:102A60000E948C020FEF0C0FE12CF12C20E030E0E3
:102A700045E550E06DE472E08EE991E00E94610569
:102A80000C2F20E030E045E550E063E572E08AE796
:102A900091E00E946105CF910F91FF90EF90089512
:102AA0009091DE081092DE0881E0911101C080E073
:102AB00008950F931F93CF93DF93FB0101900020A4
:102AC000E9F7EB018F0101501109C017D10771F02F
:102AD000699140E050E080E090E00E94E3028130A4
:102AE000A1F78091DF080E946702EFCFDF91CF91BD
:102AF0001F910F9108958F938FB78F93F8948091C2
:102B0000E4088F5F8093E4088091E5088F4F8093FD
:102B1000E5088091E6088F4F8093E6088091E708EA
:102B20008F4F8093E7088F918FBF8F910895EF9219
:102B3000FF920F930E94390224E040E052EC61E0E2
:102B400070E082E00E942615E12CF12C03E020E0E9
:102B500030E045E550E066E172E08EEF91E00E94E2
:102B6000610500E020E030E045E550E06CE172E016
:102B70008AEE91E00E94610520E030E045E550E0FA
:102B800061E272E082EE91E00E94610583E00E94C2
:102B9000A4140E94B20680E090E00F91FF90EF90A5
:102BA00008950F920FB6F8940F920BB60F920CB6D1
:102BB0000F921F9211242F923F924F925F926F9229
:102BC0007F928F929F92AF92BF92CF92DF92EF92BD
:102BD000FF920F931F932F933F934F935F936F93A6
:102BE0007F938F939F93AF93BF93CF93DF93EF9395
:102BF000FF93A0916002B09161020DB60D920EB6E6
:102C00000D920E946708A0916002B0916102CD917F
:102C1000CDBFDD91DEBFFF91EF91DF91CF91BF91ED
:102C2000AF919F918F917F916F915F914F913F9164
:102C30002F911F910F91FF90EF90DF90CF90BF9059
:102C4000AF909F908F907F906F905F904F903F904C
:102C50002F901F900F900CBE0F900BBE0F900FBEC9
:102C60000F9008950F920FB6F8940F920BB60F9233
:102C70000CB60F921F9211242F923F924F925F92A7
:102C80006F927F928F929F92AF92BF92CF92DF927C
:102C9000EF92FF920F931F932F933F934F935F9366
:102CA0006F937F938F939F93AF93BF93CF93DF9354
:102CB000EF93FF93A0916002B09161020DB60D9267
:102CC0000EB60D9213BE8091E2089091E308019731
:102CD0009093E3088093E208892B51F40E947B15BE
:102CE0008091E0089091E1089093E3088093E208D6
:102CF0000E94010781110E946708A0916002B091B3
:102D00006102CD91CDBFDD91DEBFFF91EF91DF91EB
:102D1000CF91BF91AF919F918F917F916F915F9173
:102D20004F913F912F911F910F91FF90EF90DF9066
:102D3000CF90BF90AF909F908F907F906F905F905B
:102D40004F903F902F901F900F900CBE0F900BBE96
:102D50000F900FBE0F9008950E9432161895A1E2B1
:102D60001A2EAA1BBB1BFD010DC0AA1FBB1FEE1F05
:102D7000FF1FA217B307E407F50720F0A21BB30B50
:102D8000E40BF50B661F771F881F991F1A9469F7CC
:102D900060957095809590959B01AC01BD01CF0128
:102DA0000895052E97FB1EF400940E94E81657FD27
:102DB00007D00E94AF1607FC03D04EF40C94E8161F
:102DC00050954095309521953F4F4F4F5F4F089557
:102DD00090958095709561957F4F8F4F9F4F089587
:102DE0000E940317A59F900DB49F900DA49F800D86
:102DF000911D11240895B7FF0C94F0160E94F0164F
:102E0000821B930B0895A29FB001B39FC001A39FA3
:102E1000700D811D1124911DB29F700D811D112413
:102E2000911D0895FB01DC0102C001900D924150FB
:0A2E30005040D8F70895F894FFCF42
:102E3A0003000000FF019600C800FA002C015E01A1
:102E4A009001C201F401436865636B004C45443646
:102E5A00004C4544350052656731005265673200BF
:102E6A0049444C4500496E744D6174680051436F82
:102E7A006E734E42005150726F644E4200434F4D82
:0A2E8A00547800434F4D52780000C9
:00000001FF
