:100000000C94DB010C94FC010C94FC010C94FC019D
:100010000C94FC010C94FC010C94FC010C94FC016C
:100020000C94FC010C94FC010C94FC010C94FC015C
:100030000C94FC010C94FC010C94FC010C94FC014C
:100040000C94FC010C9494160C94FC010C94FC018F
:100050000C94FC010C94FC010C94FC010C94FC012C
:100060000C94FC010C940F030C9454030C94FC01AD
:100070000C94FC010C94FC010C94FC010C94FC010C
:100080000C94FC010C94FC010C94FC010C94FC01FC
:100090000C94FC010C94FC010C94FC010C94FC01EC
:1000A0000C94FC010C94FC010C94FC010C94FC01DC
:1000B0000C94FC010C94FC010C94FC010C94FC01CC
:1000C0000C94FC010C94FC010C94FC010C94FC01BC
:1000D0000C94FC010C94FC010C94FC010C94FC01AC
:1000E0000C94FC010C943C010C9476010C94880057
:1000F0000C9405140C943D040C94B6000C949B03D2
:100100000C94FE010C944C140C940A010C94B5014F
:1001100080916602882309F10FB6F8940F92E0915E
:100120006C02F0916D02C681D781CE0102960E94C9
:100130001A11809165028150809365028091660258
:100140008150809366020F900FBE8F89988D0E9418
:100150003613CE010E943613DBCF80918F0282309E
:1001600010F00E94B9150E943702D2CFCF93DF93CF
:1001700000D01F92CDB7DEB77C0100E010E08BE726
:10018000882E912CA12CB12C97E0492E512C612C5A
:10019000712CDD24D39489829A82AB82BC828981BE
:1001A0009A81AB81BC81895B9B46AC4FBF4F8983F1
:1001B0009A83AB83BC8329813A814B815C81ADEF0B
:1001C000BFEF0E94FA1669837A838B839C836981CF
:1001D0007A818B819C81A30192010E94CD16298393
:1001E0003A834B835C8389819A81AB81BC818B315B
:1001F0009747AE4FBF4F19F001E010E0CCCF01158B
:100200001105D1F70FB6F8940F92F701D0820F9035
:100210000FBEC1CFCF93DF931F921F92CDB7DEB732
:100220007C011A82198200E013E020E040E050E0F7
:10023000BE016F5F7F4FF701808191810E94D50CD5
:10024000813091F401110AC00FB6F8940F92809199
:10025000D2088F5F8093D2080F900FBE89819A8158
:1002600001969A83898301C001E01150F1F683E081
:1002700090E00E945308D8CFCF93DF931F921F9234
:10028000CDB7DEB76C01F12C00E010E0F601808103
:1002900091810E94AD0F882321F140E050E0BE0122
:1002A0006F5F7F4FF601808191810E94BD0D81308B
:1002B00069F789819A810817190769F4F1100EC04E
:1002C0000FB6F8940F928091D3088F5F8093D30874
:1002D0000F900FBE03C08C01FF24F3940F5F1F4FDC
:1002E000D5CF8FEE9FEF0E945308D0CFCF93DF93EF
:1002F0001F92CDB7DEB700E011E44FEF5FEFBE0114
:100300006F5F7F4F80E090E00E94D702882341F02A
:10031000898181130AC08091D5088F5F0E9467028E
:100320001F5F193551F710E001C011E08091D50829
:1003300060E08F5F0E944202113079F48981883534
:1003400051F04FEF5FEFBE016F5F7F4F80E090E0B5
:100350000E94D702F3CF0F5FCFCF02306CF68091AF
:10036000D4088F5F8093D408C7CF06E910E0C1E4BA
:1003700040E050E06C2F80E090E00E94E30281308A
:1003800021F48091D5080E946702CF5FC93581F7BB
:1003900060E08091D5080E9442020E94E706039621
:1003A000B8010E9497168233910510F482E390E021
:1003B0000E945308DCCF11241FBECFEFD1E2DEBF75
:1003C000CDBF00E00CBF12E0A0E0B2E0EEE6FEE23E
:1003D00000E00BBF02C007900D92A035B107D9F71E
:1003E00028E0A0E5B2E001C01D92AE3DB207E1F702
:1003F0000E9475150C9435170C940000C1E088EB31
:100400009BE00E945308209100023091010240912C
:10041000020250910302A3E0B0E00E94EC16609348
:1004200000027093010280930202909303020E94E3
:10043000E214813011F0C09350020E9450158130B7
:1004400011F0C09350020E941715813011F0C09333
:1004500050020E94FD04813011F0C093500280913F
:1004600050028111CCCF87E00E946702C8CF0C9464
:10047000F2118FEF8093040280930A018AE5809342
:100480000B0108951F93CF93DF938830E0F4162F6C
:10049000C1E0D0E001C0CC0F8A95EAF70E94E106E6
:1004A00080910402113019F4C095C82301C0C82BF3
:1004B000C09304028091040280930B01DF91CF91DD
:1004C0001F910C94AD07DF91CF911F910895CF93A9
:1004D000DF938830F0F4C1E0D0E001C0CC0F8A9502
:1004E000EAF70E94E106809104028C2329F08091B2
:1004F0000402C095C82303C080910402C82BC09396
:1005000004028091040280930B01DF91CF910C943F
:10051000AD07DF91CF910895CF92DF92EF92FF92D6
:10052000CF936B017C01C42F0FB6F8940F9240E07B
:1005300061E08C2F0E94AD0C909354028093530283
:1005400040E061E08C2F0E94AD0C909352028093AA
:100550005102A701960184E0220F331F441F551F4B
:100560008A95D1F760E074E284EF90E00E94AB16C8
:10057000BA01A901415051096109710988E08093CC
:10058000C400BB27A72F962F852F8093C50088E92D
:100590008093C10086E88093C2000F900FBE80E078
:1005A00090E0CF91FF90EF90DF90CF9008958091F1
:1005B0005302909154020E94BD0D91E0811101C03F
:1005C00090E0892F0895CF93DF931F92CDB7DEB7C8
:1005D000698320E0BE016F5F7F4F8091510290914F
:1005E00052020E94D50C813039F48091C1008062A2
:1005F0008093C10081E001C080E00F90DF91CF9136
:1006000008950FB6F8940F92E1ECF0E080818F7DB1
:10061000808380818F7780830F900FBE08951F9213
:100620000F920FB60F9211240BB60F922F933F9398
:100630004F935F936F937F938F939F93AF93BF93EA
:10064000EF93FF93CF93DF931F921F92CDB7DEB747
:1006500019828091C6008A8320E0AE014F5F5F4F10
:10066000BE016E5F7F4F80915302909154020E94B1
:100670006B0D898181110E94B9150F900F90DF9148
:10068000CF91FF91EF91BF91AF919F918F917F910A
:100690006F915F914F913F912F910F900BBE0F90F3
:1006A0000FBE0F901F9018951F920F920FB60F92CA
:1006B00011240BB60F922F933F934F935F936F9339
:1006C0007F938F939F93AF93BF93EF93FF93CF93BA
:1006D000DF931F921F92CDB7DEB7AE014F5F5F4F22
:1006E000BE016E5F7F4F80915102909152020E9435
:1006F000670F813021F48A818093C60005C0809104
:10070000C1008F7D8093C1000F900F90DF91CF913A
:10071000FF91EF91BF91AF919F918F917F916F91D9
:100720005F914F913F912F910F900BBE0F900FBE95
:100730000F901F901895F5E00F2EF6E01F2EF7E0B2
:100740002F2EF8E03F2EF9E04F2EFAE05F2EFBE06F
:100750006F2EFCE07F2EFDE08F2EFEE09F2EFFE04F
:10076000AF2EF0E1BF2EF1E1CF2EF2E1DF2EF3E16B
:10077000EF2EF4E1FF2E05E116E127E138E149E132
:100780005AE16BE17CE18DE19EE1AFE1B0E2E1E2B3
:10079000F5E0F01100925502F6E0F11100925502D9
:1007A000F7E0F21100925502F8E0F31100925502C1
:1007B000F9E0F41100925502FAE0F51100925502A9
:1007C000FBE0F61100925502FCE0F7110092550291
:1007D000FDE0F81100925502FEE0F9110092550279
:1007E000FFE0FA1100925502F0E1FB110092550270
:1007F000F1E1FC1100925502F2E1FD110092550267
:10080000F3E1FE1100925502F4E1FF11009255024E
:10081000F5E1F01300925502F6E1F1130092550252
:10082000F7E1F21300925502F8E1F313009255023A
:10083000F9E1F41300925502FAE1F5130092550222
:10084000FBE1F61300925502FCE1F713009255020A
:10085000FDE1F81300925502FEE1F91300925502F2
:10086000FFE1FA1300925502F0E2FB1300925502E9
:10087000F1E2FE13009255025ECFF1E00F2EF2E09E
:100880001F2EF3E02F2EF4E03F2EF5E04F2EF6E082
:100890005F2EF7E06F2EF8E07F2EF9E08F2EFAE062
:1008A0009F2EFBE0AF2EFCE0BF2EFDE0CF2EFEE042
:1008B000DF2EFFE0EF2EF0E1FF2E01E112E123E158
:1008C00034E145E156E167E178E189E19AE1ABE1A4
:1008D000BCE1EDE1F1E0F01100925502F2E0F1111E
:1008E00000925502F3E0F21100925502F4E0F31188
:1008F00000925502F5E0F41100925502F6E0F51170
:1009000000925502F7E0F61100925502F8E0F71157
:1009100000925502F9E0F81100925502FAE0F9113F
:1009200000925502FBE0FA1100925502FCE0FB1127
:1009300000925502FDE0FC1100925502FEE0FD110F
:1009400000925502FFE0FE1100925502F0E1FF1106
:1009500000925502F1E1F01300925502F2E1F11319
:1009600000925502F3E1F21300925502F4E1F31301
:1009700000925502F5E1F41300925502F6E1F513E9
:1009800000925502F7E1F61300925502F8E1F713D1
:1009900000925502F9E1F81300925502FAE1F913B9
:1009A00000925502FBE1FA1300925502FCE1FB13A1
:1009B00000925502FDE1FE13009255025ECFEF92C8
:1009C000FF920F93E12CF12C00E020E030E045E5B0
:1009D00050E06CE172E08BE993E00E94610520E059
:1009E00030E045E550E061E272E08DE394E00E9482
:1009F00061050F91FF90EF90089581E0909155026D
:100A0000911180E00895E0917B02F0917C02808159
:100A1000811103C08FEF9FEF0CC0E0917B02F0913A
:100A20007C020580F681E02D0680F781E02D828131
:100A3000938190935C0280935B0208950F931F93C0
:100A4000CF93DF93EC0100916302109164028091D7
:100A500056029091570202960E941A11C00FD11FA0
:100A6000E0915602F0915702D383C28360915602FF
:100A700070915702C017D10760F48091790290916C
:100A80007A026E5F7F4FDF91CF911F910F910C948F
:100A9000E21080917B0290917C026E5F7F4F0E94FA
:100AA000E21080915B0290915C02C817D90720F494
:100AB000D0935C02C0935B02DF91CF911F910F91A5
:100AC00008953F924F925F926F927F928F929F9282
:100AD000AF92BF92CF92DF92EF92FF920F931F934C
:100AE000CF93DF934C01162F372E6A015901CA01AB
:100AF0000E9404132C01892B09F4CCC086E290E0FB
:100B00000E940413EC01892B79F0588E4F8AC6019C
:100B100001973201680E791EBE01675E7F4FE12F9B
:100B2000F32DCF01089607C0C2010E943613B2C050
:100B3000E817F90749F09F014191DB014D93BD0191
:100B4000D9012C912111F4CF18A2043008F003E050
:100B50000E8B6E01B2E0CB0ED11CC6010E94BD10FF
:100B6000CE010C960E94BD10D987C88784E090E022
:100B7000801B91099D878C87DB8BCA8B19A21AA2D7
:100B80001BA21CA21DA2A501B401C3010E94451312
:100B900099838883E114F10419F0F701D183C083AC
:100BA0000FB6F8940F92809165028F5F8093650273
:100BB0008091560290915702892BA9F5D093570244
:100BC000C0935602809165028130E9F58FE892E08A
:100BD0000E94AF1088E992E00E94AF1081EA92E093
:100BE0000E94AF108AEA92E00E94AF1086E892E07D
:100BF0000E94AF108DE792E00E94AF1080E792E074
:100C00000E94AF1087E692E00E94AF1086E892E063
:100C100090937C0280937B028DE792E090937A021E
:100C20008093790210C08091610281110CC0E09123
:100C30005602F091570296898E89891720F0D09339
:100C40005702C093560280915D028F5F80935D02D0
:100C50008E8990916202981710F480936202F9E0F5
:100C60008F9FC0011124B60181579D4F0E94C11072
:100C70000F900FBE80916102882351F0E0915602DF
:100C8000F091570296898E89981710F40E94B91531
:100C900081E001C08FEFDF91CF911F910F91FF9005
:100CA000EF90DF90CF90BF90AF909F908F907F900C
:100CB0006F905F904F903F9008950F931F93CF9345
:100CC000DF93EC010FB6F8940F92892B21F4C091B9
:100CD0005602D09157028E010E5F1F4FC8010E942D
:100CE0001A118C899D89892B21F0CE010C960E94C6
:100CF0001A1180915D028F5F80935D028091560290
:100D000090915702C817D90759F4B80187E692E0C5
:100D10000E94C110809166028F5F809366020EC0B0
:100D2000809165028150809365028F89988D0E9421
:100D30003613CE010E9436130E9403050F900FBE9A
:100D400080916102882349F0809156029091570268
:100D5000C817D90711F40E94B915DF91CF911F91DF
:100D60000F910895EF92FF920F9389E5E82E82E0AC
:100D7000F82E00E020E030E045E550E066E272E069
:100D800088E890E00E946105813091F4F8942FEF9B
:100D90003FEF30935C0220935B02809361021092DC
:100DA0006402109263020F91FF90EF900C94B713BE
:100DB0000F91FF90EF900895F894109261020C94B7
:100DC000FF13809158028F5F8093580208950FB6E9
:100DD000F8940F9280916302909164020F900FBE7D
:100DE0000895809163029091640208958091650254
:100DF0000895009721F480915602909157024996E8
:100E00000895CF92DF92EF92FF920F931F93CF93AB
:100E1000DF938091580281118CC000916302109180
:100E200064020F5F1F4F1093640200936302011569
:100E30001105B9F480917B0290917C022091790296
:100E400030917A0230937C0220937B0290937A0255
:100E50008093790280915E028F5F80935E020E9490
:100E6000030580915B0290915C02C0E008171907AE
:100E700008F44FC0D9E0E0917B02F0917C028081C0
:100E8000811103C08FEF9FEF11C0E0917B02F091C1
:100E90007C020580F681E02DE680F780D70112966E
:100EA0008D919C9113970817190728F490935C0271
:100EB00080935B022EC06701B2E0CB0ED11CC6014D
:100EC0000E941A11F70184899589892B21F0C701A5
:100ED0000C960E941A11D70156968C91909162023D
:100EE000981710F480936202D89FC0011124B601B4
:100EF00081579D4F0E94C110E0915602F091570218
:100F0000D70156969C918689981708F4B4CFC1E012
:100F1000B2CFE0915602F0915702E689B9E0EB9F1B
:100F2000F0011124E157FD4F8081823040F0C1E093
:100F300006C0809160028F5F80936002C0E0809164
:100F40005F028111C1E08C2FDF91CF911F910F9132
:100F5000FF90EF90DF90CF900895EF92FF920F9364
:100F60001F93CF93DF930FB6F8940F92809158029E
:100F700081508093580280915802882311F080E0BC
:100F800052C0809165028823D1F3C0E0D0E089E0AF
:100F9000F82EEE24E39480917002882351F1E091C1
:100FA0007502F0917602C681D781CE010C960E941F
:100FB0001A118E010E5F1F4FC8010E941A118E89EF
:100FC00090916202981710F480936202F89EC0011B
:100FD0001124B80181579D4F0E94C110E091560223
:100FE000F09157029E8986899817A8F2E0925F02D5
:100FF000D2CFCD2B11F00E940305C0916002CC230B
:1010000051F0D1E00E9401078111D0935F02C150DD
:10101000C9F71092600280915F02882309F4AFCF74
:101020000E94B91581E00F900FBEDF91CF911F9103
:101030000F91FF90EF9008950F931F93CF93DF933D
:101040008C01EB010E94E106409163025091640221
:10105000F80120813181C9018C0F9D1F4217530770
:1010600020F48217930740F403C08217930730F0EF
:1010700021E04817590718F020E001C021E0F801ED
:1010800091838083222321F0841B950B0E941E05EF
:101090000E94AD07811102C00E94B915DF91CF9166
:1010A0001F910F910895CF93DF93EC01892B19F4D1
:1010B0000E94B91509C00E94E106CE010E941E05DA
:1010C0000E94AD078823A1F3DF91CF91089580910D
:1010D0005802882321F081E080935F0208951092E6
:1010E0005F028091620269E0482F50E0649F9001A6
:1010F000659F300D1124F901E157FD4F9081911149
:1011000002C08150F1CFA181B28112960D90BC91A5
:10111000A02DB283A1832E563D4FA217B30731F401
:1011200012962D913C9113973283218399E0949FDD
:10113000F001959FF00D1124E157FD4F0180F281E0
:10114000E02D2681378130935702209356028093F9
:1011500062020895CF93DF93EB0160915602709184
:101160005702645F7F4F0E94E210CE01DF91CF9162
:101170000C941E05CF93DF93EA01E0915602F091A3
:1011800057027068758764876091560270915702A4
:10119000645F7F4F0E94C110CE01DF91CF910C940C
:1011A0001E050F931F93CF93DF93DC011596ED91EE
:1011B000FC911697C681D7818E01045F1F4FC8012D
:1011C0000E941A1180915802811114C00A5011090D
:1011D000C8010E941A118E8990916202981710F42A
:1011E00080936202B9E08B9FC0011124B80181573E
:1011F0009D4F03C0B80180E792E00E94C110E091CA
:101200005602F09157029E898689891720F481E061
:1012100080935F0201C080E0DF91CF911F910F9119
:1012200008950F931F93CF93DF937068FC01718330
:101230006083C681D7810E941A118E010E5F1F4FF5
:10124000C8010E941A118E8990916202981710F4B9
:1012500080936202F9E08F9FC0011124B801815789
:101260009D4F0E94C110E0915602F09157029E8955
:101270008689891718F481E080935F02DF91CF910E
:101280001F910F9108950FB6F8940F9220915E026E
:10129000FC01208320916302309164023283218318
:1012A0000F900FBE089520915E02FC0120832091D3
:1012B0006302309164023283218308950FB6F8945B
:1012C0000F922091630230916402DC0111964D91DE
:1012D0005C911297E0915E02FC91FE1719F02417C1
:1012E000350790F4241B350BFB01408151812417F5
:1012F000350740F4421B530B518340830E9453092E
:1013000080E003C01182108281E00F900FBE08952B
:1013100081E080935F020895E0915602F0915702B8
:1013200084859585E0915602F0915702A09156026E
:10133000B091570256964C9124E030E0241B3109BD
:101340003587248708950F931F93182FCB010FB66D
:10135000F8940F92E0915602F091570241A152A1E8
:1013600063A174A1452B462B472B61F4E0915602F3
:10137000F091570221E025A3009721F00E941E055D
:101380000E94B9150F900FBE0FB6F8940F92E0911E
:101390005602F091570261A172A183A194A1611537
:1013A000710581059105A9F0E0915602F09157026F
:1013B000112329F011A212A213A214A20AC08B01B8
:1013C0009C01015011092109310901A312A323A392
:1013D00034A3E0915602F091570215A20F900FBE70
:1013E0001F910F9108954F925F926F927F928F920B
:1013F0009F92AF92BF92EF92FF920F931F9349017A
:101400005A010FB6F8940F92E0915602F0915702EC
:1014100025A1223031F1E0915602F091570221A12D
:1014200032A143A154A12B013C01409450946094FB
:101430007094D301C20182239323A423B52381A3F3
:1014400092A3A3A3B4A3E0915602F091570281E0C6
:1014500085A3E114F10429F0C7010E941E050E9432
:10146000B9150F900FBE0FB6F8940F920115110524
:1014700069F0E0915602F091570281A192A1A3A1D7
:10148000B4A1F80180839183A283B383E0915602D3
:10149000F091570285A18230C1F4E0915602F0919B
:1014A000570241A152A163A174A1D501C401809545
:1014B0009095A095B09584239523A623B72381A367
:1014C00092A3A3A3B4A381E001C080E0E0915602FF
:1014D000F091570215A20F900FBE1F910F91FF9030
:1014E000EF90BF90AF909F908F907F906F905F90A4
:1014F0004F9008950F931F93CF93DF93FC010FB686
:10150000F8940F920115110549F081A192A1A3A1B0
:10151000B4A1E80188839983AA83BB8335A182E0C3
:1015200085A3223089F058F4213001F581A192A1E0
:10153000A3A1B4A1482B592B6A2B7B2B13C02330BA
:1015400089F0243069F012C081A192A1A3A1B4A1B5
:101550000196A11DB11D81A392A3A3A3B4A306C0AC
:10156000323049F141A352A363A374A3313009F58A
:10157000EF018F010E5F1F4FC8010E941A118E8963
:1015800090916202981710F48093620229E0829F82
:10159000C0011124B80181579D4F0E94C110E091F4
:1015A0005602F09157029E898689891710F40E948D
:1015B000B91581E001C080E00F900FBEDF91CF919F
:1015C0001F910F910895EF92FF920F931F93CF9366
:1015D000DF93FC010115110549F081A192A1A3A19E
:1015E000B4A1E80188839983AA83BB8335A182E0F3
:1015F00085A3223089F058F4213001F581A192A110
:10160000A3A1B4A1482B592B6A2B7B2B13C02330E9
:1016100089F0243069F012C081A192A1A3A1B4A1E4
:101620000196A11DB11D81A392A3A3A3B4A306C0DB
:101630003230D9F141A352A363A374A3313011F026
:1016400081E034C0EF0180915802811115C08F01F3
:101650000E5F1F4FC8010E941A118E89909162027D
:10166000981710F480936202E9E08E9FC001112464
:10167000B80181579D4F05C0BF01645F7F4F80E770
:1016800092E00E94C110E0915602F09157029E89AB
:1016900086898917A8F6E114F10419F081E0E701C1
:1016A000888381E080935F0201C080E0DF91CF9169
:1016B0001F910F91FF90EF900895EF92FF920F937B
:1016C0001F93CF93DF93FC0125A182E085A381A125
:1016D00092A1A3A1B4A10196A11DB11D81A392A3C2
:1016E000A3A3B4A32130A1F58B01EF01809158028F
:1016F000811116C07F0122E0E20EF11CC7010E9499
:101700001A118E8990916202981710F480936202E8
:10171000E9E08E9FC0011124B70181579D4F05C09C
:10172000BF01645F7F4F80E792E00E94C110E091AB
:101730005602F09157029E898689891748F401154F
:10174000110519F081E0F801808381E080935F0248
:10175000DF91CF911F910F91FF90EF900895009727
:1017600021F480915602909157020FB6F8940F928F
:10177000FC0125A1223019F415A281E001C080E00E
:101780000F900FBE08950FB6F8940F92FC01928D42
:101790000F900FBE81E0911180E008950F931F9389
:1017A000CF93DF93EC01042F1A8D4C8D4423B1F1BC
:1017B00050E0011115C08A819B810E940E172C8D6B
:1017C0008A819B81820F911D9B838A832C813D811D
:1017D0008217930718F1888199819B838A831EC0A1
:1017E0008E819F810E940E178C8D90E0919581953E
:1017F00091092E813F81280F391F3F832E83488115
:1018000059812417350730F42C813D81820F931FB5
:101810009F838E83023011F4111111501F5F1A8FB4
:1018200080E0DF91CF911F910F910895FC01CB01D2
:10183000448D4423A1F050E026813781240F351FC9
:1018400037832683648175812617370720F020812E
:10185000318137832683668177810C940E17089532
:10186000EF92FF921F93CF93DF93EC010FB6F894A2
:101870000F921E8D7C0181E1E80EF11C11165CF4C3
:101880008989882341F0C7010E94D10881110E94F3
:1018900088091150F3CF8FEF8E8F0F900FBE0FB6C8
:1018A000F8940F921D8D7E0188E0E80EF11C111650
:1018B0005CF48885882341F0C7010E94D10881111A
:1018C0000E9488091150F3CF8FEF8D8F0F900FBEBC
:1018D000DF91CF911F91FF90EF900895CF93DF9309
:1018E000EC010FB6F8940F92488159818B8D7C8D55
:1018F0009A01879F200D311D11243D832C831A8E60
:101900005B834A8390E00197789F9001799F300D27
:101910001124CA01820F931F9F838E838FEF8D8FB7
:101920008E8F61110CC08885882389F0CE010896BE
:101930000E94D108882359F00E94B91508C0CE0131
:1019400008960E94AF10CE0141960E94AF100F90F2
:101950000FBE81E0DF91CF9108950F931F93CF9336
:10196000DF93082F162F662321F0869FC0011124D4
:1019700002C080E090E04F960E940413EC010097B3
:1019800071F0111103C09983888303C04F96998326
:1019900088830B8F1C8F61E0CE010E946E0CCE01FC
:1019A000DF91CF911F910F910895AF92BF92CF9287
:1019B000DF92FF920F931F93CF93DF9300D01F927C
:1019C0001F92CDB7DEB78C016B015D834C83F22E85
:1019D00080E0580198E0A90EB11C0FB6F8940F9260
:1019E000F801228D938D291718F0F2E0FF1214C030
:1019F0004F2DB601C8010E94CE0BF80191899923A1
:101A000021F0C80141960E94D10881110E94B915A8
:101A10000F900FBE81E050C02C813D81232B19F423
:101A20000F900FBE48C0811104C0CE0101960E94E4
:101A300053090F900FBE0E94E1060FB6F8940F9263
:101A4000F801858D8F3F09F4158EF801868D8F3F43
:101A500009F4168E0F900FBEBE016C5F7F4FCE0152
:101A600001960E945E09811121C00FB6F8940F9271
:101A7000F801928D838D0F900FBE981311C06C8169
:101A80007D81C5010E94AA08C8010E94300C0E94F5
:101A9000AD07882311F081E0A0CF0E94B915FBCFDC
:101AA000C8010E94300C0E94AD07F5CFC8010E940A
:101AB000300C0E94AD0780E00F900F900F900F90B8
:101AC0000F90DF91CF911F910F91FF90DF90CF90FA
:101AD000BF90AF900895EF92FF921F93CF93DF9343
:101AE000EC019A8D8B8D981710F02230E1F47A0179
:101AF0001E8D422FCE010E94CE0B1F3F81F489899B
:101B0000882379F0CE0141960E94D108882349F0BC
:101B1000E114F10431F081E0F701808305C01F5F1B
:101B20001E8F81E001C080E0DF91CF911F91FF9077
:101B3000EF900895CF93DF93FC01928D838D9817DA
:101B4000C0F4868D9F5F928F8F3F79F481898823BF
:101B500071F0EB01CF0141960E94D108882339F042
:101B6000209729F081E0888305C08F5F868F81E010
:101B700001C080E0DF91CF910895AF92BF92CF92E4
:101B8000DF92FF920F931F93CF93DF9300D01F92AA
:101B90001F92CDB7DEB78C016B015D834C8380E073
:101BA000580191E1A90EB11C0FB6F8940F92F801FB
:101BB000F28CFF20A9F0B601C8010E94160CFA941D
:101BC000F801F28E8085882339F0C80108960E94BA
:101BD000D10881110E94B9150F900FBE81E050C04D
:101BE0002C813D81232B19F40F900FBE48C0811129
:101BF00004C0CE0101960E9453090F900FBE0E94AF
:101C0000E1060FB6F8940F92F801858D8F3F09F425
:101C1000158EF801868D8F3F09F4168E0F900FBE3A
:101C2000BE016C5F7F4FCE0101960E945E0981115B
:101C30001CC0C8010E94C30B882389F06C817D8180
:101C4000C5010E94AA08C8010E94300C0E94AD077D
:101C5000882311F081E0A8CF0E94B915FBCFC801FD
:101C60000E94300C0E94AD07F5CFC8010E94300CD5
:101C70000E94AD07C8010E94C30B882359F380E07E
:101C80000F900F900F900F900F90DF91CF911F91B9
:101C90000F91FF90DF90CF90BF90AF900895EF929B
:101CA000FF920F931F93CF93DF9300D01F921F9249
:101CB000CDB7DEB78C017D836C8390E0780181E144
:101CC000E80EF11C0FB6F8940F92F801828D88236C
:101CD00081F08150828F8085882339F0C801089671
:101CE0000E94D10881110E94B9150F900FBE81E0AA
:101CF00050C02C813D81232B19F40F900FBE48C09A
:101D0000911104C0CE0101960E9453090F900FBE9D
:101D10000E94E1060FB6F8940F92F801858D8F3F6F
:101D200009F4158EF801868D8F3F09F4168E0F90F9
:101D30000FBEBE016C5F7F4FCE0101960E945E090F
:101D400081111CC0C8010E94C30B882389F06C81DB
:101D50007D81C7010E94AA08C8010E94300C0E9420
:101D6000AD07882311F091E0ADCF0E94B915FBCFEC
:101D7000C8010E94300C0E94AD07F5CFC8010E9437
:101D8000300C0E94AD07C8010E94C30B882359F391
:101D900080E00F900F900F900F900F90DF91CF91F8
:101DA0001F910F91FF90EF900895CF92DF92EF92E5
:101DB000FF920F931F93CF93DF9300D01F921F9238
:101DC000CDB7DEB78C017B015D834C8380E0680179
:101DD00091E1C90ED11C0FB6F8940F92F801928DC3
:101DE0009923B9F0C680D780B701C8010E94160CAC
:101DF000F801D782C6828189882339F0C8014196CB
:101E00000E94D10881110E94B9150F900FBE81E088
:101E100050C02C813D81232B19F40F900FBE48C078
:101E2000811104C0CE0101960E9453090F900FBE8C
:101E30000E94E1060FB6F8940F92F801858D8F3F4E
:101E400009F4158EF801868D8F3F09F4168E0F90D8
:101E50000FBEBE016C5F7F4FCE0101960E945E09EE
:101E600081111CC0C8010E94C30B882389F06C81BA
:101E70007D81C6010E94AA08C8010E94300C0E9400
:101E8000AD07882311F081E0A6CF0E94B915FBCFE2
:101E9000C8010E94300C0E94AD07F5CFC8010E9416
:101EA000300C0E94AD07C8010E94C30B882359F370
:101EB00080E00F900F900F900F900F90DF91CF91D7
:101EC0001F910F91FF90EF90DF90CF900895EF92C8
:101ED000FF920F931F93CF93DF93FC01028D00239A
:101EE000E9F07A01EC01158D0E94160C01500A8F61
:101EF0001F3F81F48885882379F0CE0108960E94DF
:101F0000D108882349F0E114F10431F081E0F701B0
:101F1000808305C01F5F1D8F81E001C080E0DF91DD
:101F2000CF911F910F91FF90EF9008950F931F9302
:101F3000CF93DF93FC01228D222349F0EC0106812F
:101F400017810E94160C1F830E8381E001C080E080
:101F5000DF91CF911F910F9108950FB6F8940F92D2
:101F6000FC01828D0F900FBE08950FB6F8940F926A
:101F7000FC01228D838D821B0F900FBE0895FC0102
:101F8000828D08950C943613FC01928D81E091119D
:101F900080E00895FC01928D81E0238D291380E07B
:101FA0000895CF93DF93EC01CA01F8940FB6F8942B
:101FB0000F923A8D2B8D0F900FBE32130DC00097EC
:101FC00041F0BE01685F7F4F0E94B01178948CEFA2
:101FD0001CC0789480E019C07894F8949A8D8B8D09
:101FE000981788F440E0CE010E94CE0B89898111B8
:101FF00002C081E009C0CE0141960E94DF12882311
:10200000C1F38BEF01C080E07894DF91CF91089508
:10201000CF93DF93EC01FB01F8948A8D81110FC0FF
:102020004115510549F0BE016F5E7F4FCA010E9404
:10203000B01178948CEF30C0789480E02DC0789403
:10204000F8948A8D882331F14C8D50E02E813F81A8
:10205000240F351F3F832E838C819D8128173907DC
:1020600020F0888199819F838E839A8D91509A8FD9
:102070006E817F81CF010E940E178885811102C079
:1020800081E009C0CE0108960E94DF128823C1F3C7
:102090008BEF01C080E07894DF91CF9108950F938A
:1020A0001F93CF938C01C42FFC01928D838D9817C1
:1020B00010F04C2F12C040E0C8010E94CE0BC1119D
:1020C000F8CFF8018189882339F0C80141960E9430
:1020D000DF1241E0811101C040E0842FCF911F91B8
:1020E0000F9108950F931F93CF93DF93FC01828D7F
:1020F000882379F1248D30E0A681B781A20FB31F28
:10210000B783A68384819581A817B90720F08081C1
:102110009181978386838A01CB01EF01428D4150E3
:10212000428F66817781A9010E940E17F801808194
:10213000882311F081E00EC088858823D9F3CE0171
:1021400008960E94DF128823A9F381E0F8018083BA
:1021500001C080E0DF91CF911F910F910895FC01A4
:102160000396928381832FEF3FEF348323839683FB
:1021700085839087878310820895FC0111861086DD
:102180000895CF93DF939C01FB01DC011196CD9163
:10219000DC911297D383C2838C819D819583848344
:1021A0008C819D81DC0113967C936E9312977D83C5
:1021B0006C8331872087F90180818F5F8083DF9175
:1021C000CF9108950F931F93CF93DF938C01FB0161
:1021D000808191818F3F2FEF920721F4E801AF8139
:1021E000B8850EC0D801139612962D913C91139785
:1021F000E901488159818417950710F0D901F4CF7E
:1022000012968D919C91139793838283EC01FD83A9
:10221000EC83B583A4831396FC93EE9312971187F6
:102220000087F80180818F5F8083DF91CF911F91BC
:102230000F910895CF93DF93FC01A085B185828132
:10224000938124813581EC013D832C83C481D58128
:102250009B838A8311968D919C911297E817F907B9
:1022600021F41296DC93CE931197118610868C91EF
:1022700081508C938C91DF91CF910895CF92DF9212
:10228000EF92FF921F93CF93DF936C01162FF42EE2
:102290008AE190E00E940413EC01892B09F457C0F5
:1022A0008091B3029091B402892B21F5D093B402AE
:1022B000C093B3028BED92E00E94AF1084EE92E0E7
:1022C0000E94AF1082ED92E00E94AF1089EC92E084
:1022D0000E94AF108CEB92E00E94AF1082ED92E072
:1022E0009093C8028093C70289EC92E09093C60253
:1022F0008093C502111111E0198E188E1E8BFF8A72
:10230000FE01C192D1927F01CF010E94BD10CE018A
:102310000C960E94BD10D987C887DB8BCA8B82E0E0
:1023200090E0811B91099D878C878E899091BB02DB
:10233000981710F48093BB02F9E08F9FC00111241D
:10234000B70185529D4F0E94C11081E001C08FEFFF
:10235000DF91CF911F91FF90EF90DF90CF90089584
:102360000F931F93CF93DF938B01C091B902D0914C
:10237000BA02C80FD91F8091B3029091B40202969D
:102380000E941A11E091B302F091B402D383C28388
:102390008091B9029091BA02BF016E5F7F4FC8175A
:1023A000D90728F48091C5029091C60204C080919B
:1023B000C7029091C8020E94E2100115110569F050
:1023C0006091B3027091B402645F7F4FC801DF91E6
:1023D000CF911F910F910C94E210DF91CF911F913B
:1023E0000F910895FF920F931F93CF93DF9399E07E
:1023F000F92E8091BC02882311F1F894E091C1027A
:10240000F091C202C681D781CE010C960E941A11AA
:1024100078948E010E5F1F4FC8010E941A118E8999
:102420009091BB02981710F48093BB02F89EC001F4
:102430001124B80185529D4F0E94C110DACF0E942D
:10244000E7062091B7023091B802821B930B90935C
:10245000B6028093B50289E0F82E2091B502309142
:10246000B6028091B9029091BA022115310509F4A2
:1024700054C001969093BA028093B9022150310959
:102480003093B6022093B502892B09F03EC08091AB
:10249000C7029091C8022091C5023091C6023093C4
:1024A000C8022093C7029093C6028093C5022DC034
:1024B0000580F681E02DC681D7812A813B818091FC
:1024C000B9029091BA028217930738F2F8948E01FC
:1024D0000E5F1F4FC8010E941A118C899D89892B9C
:1024E00021F0CE010C960E941A1178948E89909159
:1024F000BB02981710F48093BB02F89EC001112410
:10250000B80185529D4F0E94C110E091C702F09121
:10251000C80280818111CCCFA0CF9093B802809364
:10252000B7028091BB0269E0482F50E0649F9001A0
:10253000659F300D1124F901E552FD4F90819111F5
:102540000CC0811108C01092BB02DF91CF911F9186
:102550000F91FF9008958150E7CF8093BB02A18136
:10256000B28112960D90BC91A02DB283A18322520C
:102570003D4FA217B30731F412968D919C9113979A
:102580009283818389E0849FF001859FF00D11245F
:10259000E552FD4F0180F281E02D86819781909375
:1025A000B4028093B302DC01ED91FC911197579630
:1025B0006C91DF91CF911F910F91FF9019940F9320
:1025C0001F93CF93DF93DC011596ED91FC91169745
:1025D000C681D7818E01045F1F4FC8010E941A1166
:1025E000B8018CEB92E00E94C110E091B302F0912F
:1025F000B40281E02E899689291708F480E0DF91E2
:10260000CF911F910F910895CF93DF93EC010E941A
:10261000E1068091ED029091EE02892B31F482EF78
:1026200092E09093EE028093ED022091EF023091C0
:10263000F002C9018C0F9D1F8B3D45E0940770F49B
:102640002817390758F4C091ED02D091EE02C20F5D
:10265000D31F9093F0028093EF0202C0C0E0D0E05D
:102660000E94AD07CE01DF91CF9108950895109299
:10267000F0021092EF0208952091EF023091F002E3
:102680008BED95E0821B930B089531E1FC013083C3
:10269000319722E220833197A3E3A08331976083AF
:1026A000319770833197108231971082319760E8AB
:1026B0006083319710823197108231971082319761
:1026C00062E06083319763E06083319764E0608308
:1026D000319765E06083319766E06083319767E00A
:1026E0006083319768E06083319769E06083319758
:1026F00060E1608331973083319732E130833197E5
:1027000033E13083319734E13083319735E13083E1
:10271000319736E13083319737E13083319738E1B3
:102720003083319739E13083319730E2308331970C
:1027300031E2308331972083319723E22083319730
:10274000408331975083319726E22083319727E2E7
:102750002083319728E22083319729E22083319723
:1027600020E32083319721E320838997089588EE21
:1027700093E09093D7088093D6089093D9088093DC
:10278000D8081092890089EF809388008BE08093AD
:102790008100EFE6F0E0808182608083A0915602A4
:1027A000B0915702CD91CDBFDD91DEBFFF91EF918A
:1027B000DF91CF91BF91AF919F918F917F916F9159
:1027C0005F914F913F912F911F910F91FF90EF904B
:1027D000DF90CF90BF90AF909F908F907F906F9041
:1027E0005F904F903F902F901F900F900CBE0F90D6
:1027F0000BBE0F900FBE0F90089581E00895EFE695
:10280000F0E08081887F808308950F931F93CF939A
:10281000DF931F92CDB7DEB78C01FC01808D918DC7
:102820008E36F1E09F07B1F08F3621E0920751F12B
:10283000892B61F54FEF5FEFBE016F5F7F4F809196
:10284000CD089091CE080E9408108C3F71F48EE65E
:1028500091E00FC040E050E0BE016F5F7F4F80917C
:10286000CD089091CE080E9408108B3F31F48FE67E
:1028700091E0F801918F808F09C0813019F010929A
:102880000502D8CF89810E946702D4CF0F90DF91D3
:10289000CF911F910F9108950F931F93CF93DF93C3
:1028A0001F92CDB7DEB78C016983FC01808D918DBD
:1028B0008E32F1E09F07D9F018F4892B41F03EC029
:1028C0008F32E1E09E0739F182349140B9F540E062
:1028D00050E0BE016F5F7F4F8091CD089091CE0890
:1028E0000E94D10F8C3F71F48EE291E024C040E051
:1028F00050E0BE016F5F7F4F8091CD089091CE0870
:102900000E94D10F8B3F19F48FE291E014C0813007
:1029100011F010920502E981F0E0EE0FFF1FEA5F6F
:10292000FD4F80819181009721F060E070E00E946E
:10293000B01182E491E0F801918F808F0F90DF91C8
:10294000CF911F910F910895CF93DF93D82F8930A6
:1029500008F0D8E040E061E081E00E94AD0C909387
:10296000CE088093CD08892B99F0C0E0CD1741F0B7
:102970004C2F60E08CE494E10E943E11CF5FF6CFD3
:1029800040E061E085E094E1DF91CF910C943E114D
:10299000DF91CF910895809105020895EF92FF9203
:1029A0000F93E12CF12C082F2FEC38E045E550E097
:1029B0006BE272E086EB90E00E9461050F91FF9060
:1029C000EF90089581E09091CF08911101C080E0CF
:1029D0001092CF080895EF92FF920F93CF93C82FD4
:1029E00040E062E08AE00E94AD0C9093D1088093B1
:1029F000D008892BB9F0E12CF12C0C2F20ED38E018
:102A000045E550E063E372E08CE391E00E946105EC
:102A100020ED38E045E550E06BE372E08AE091E0BC
:102A20000E946105CF910F91FF90EF9008958091E2
:102A3000D308882329F09091D20881E0911101C038
:102A400080E01092D3081092D2080895EF92FF927E
:102A50000F93CF93C82FCB01BA012093D50848E13B
:102A60000E948C020FEF0C0FE12CF12C20E030E0E3
:102A700045E550E063E472E085EB91E00E9461057A
:102A80000C2F20E030E045E550E069E472E086E795
:102A900091E00E946105CF910F91FF90EF90089512
:102AA0009091D4081092D40881E0911101C080E087
:102AB00008958F938FB78F93F8948091DA088F5F82
:102AC0008093DA088091DB088F4F8093DB08809138
:102AD000DC088F4F8093DC088091DD088F4F809356
:102AE000DD088F918FBF8F910895EF92FF920F9322
:102AF000CF93DF931F92CDB7DEB741E050E060E5A2
:102B000070E0CE0101960E94171769816F5F69839B
:102B100080E590E00E9427170E94390280E00E9421
:102B2000CE1424E040E052EC61E070E082E00E94CC
:102B3000261582E00E94EB140E94DF04E12CF12CA8
:102B400003E020E030E045E550E066E172E08EEF22
:102B500091E00E94610583E00E94A4140E94B206E5
:102B600080E090E00F90DF91CF910F91FF90EF9078
:102B700008950F920FB6F8940F920BB60F920CB601
:102B80000F921F9211242F923F924F925F926F9259
:102B90007F928F929F92AF92BF92CF92DF92EF92ED
:102BA000FF920F931F932F933F934F935F936F93D6
:102BB0007F938F939F93AF93BF93CF93DF93EF93C5
:102BC000FF93A0915602B09157020DB60D920EB62A
:102BD0000D920E946708A0915602B0915702CD91C4
:102BE000CDBFDD91DEBFFF91EF91DF91CF91BF911E
:102BF000AF919F918F917F916F915F914F913F9195
:102C00002F911F910F91FF90EF90DF90CF90BF9089
:102C1000AF909F908F907F906F905F904F903F907C
:102C20002F901F900F900CBE0F900BBE0F900FBEF9
:102C30000F9008950F920FB6F8940F920BB60F9263
:102C40000CB60F921F9211242F923F924F925F92D7
:102C50006F927F928F929F92AF92BF92CF92DF92AC
:102C6000EF92FF920F931F932F933F934F935F9396
:102C70006F937F938F939F93AF93BF93CF93DF9384
:102C8000EF93FF93A0915602B09157020DB60D92AB
:102C90000EB60D9213BE8091D8089091D908019775
:102CA0009093D9088093D808892B51F40E94591524
:102CB0008091D6089091D7089093D9088093D8082E
:102CC0000E94010781110E946708A0915602B091ED
:102CD0005702CD91CDBFDD91DEBFFF91EF91DF9126
:102CE000CF91BF91AF919F918F917F916F915F91A4
:102CF0004F913F912F911F910F91FF90EF90DF9097
:102D0000CF90BF90AF909F908F907F906F905F908B
:102D10004F903F902F901F900F900CBE0F900BBEC6
:102D20000F900FBE0F9008950E941A161895AA1BB7
:102D3000BB1B51E107C0AA1FBB1FA617B70710F0A6
:102D4000A61BB70B881F991F5A95A9F780959095D8
:102D5000BC01CD010895A1E21A2EAA1BBB1BFD01E7
:102D60000DC0AA1FBB1FEE1FFF1FA217B307E4076A
:102D7000F50720F0A21BB30BE40BF50B661F771FC2
:102D8000881F991F1A9469F76095709580959095A2
:102D90009B01AC01BD01CF010895052E97FB1EF4E8
:102DA00000940E94E41657FD07D00E94AB1607FC62
:102DB00003D04EF40C94E41650954095309521952F
:102DC0003F4F4F4F5F4F0895909580957095619557
:102DD0007F4F8F4F9F4F08950E94FF16A59F900D24
:102DE000B49F900DA49F800D911D11240895B7FFED
:102DF0000C94EC160E94EC16821B930B0895A29F74
:102E0000B001B39FC001A39F700D811D1124911DBE
:102E1000B29F700D811D1124911D0895FB01DC01ED
:102E200002C001900D9241505040D8F70895DC0146
:102E3000CB01FC01F999FECF06C0F2BDE1BDF89AC5
:102E4000319600B40D9241505040B8F70895262FA6
:102E5000F999FECF1FBA92BD81BD20BD0FB6F8947F
:0E2E6000FA9AF99A0FBE01960895F894FFCFE2
:102E6E0003000000FF019600C800FA002C015E016D
:102E7E009001C201F401436865636B0052656731CE
:102E8E0000526567320049444C4500496E744D61ED
:102E9E0074680051436F6E734E42005150726F64EE
:102EAE004E4200434F4D547800434F4D5278000030
:00000001FF
